:020000040000FA
:060000000A128A11F12F23
:100B600064008001840A0406031900340406B12DD0
:100B700083120313891009110E3088000A128A119A
:100B8000F9250A128A11080083120313891009112A
:100B9000383088000A128A11F9250A128A110800D1
:100BA000F2008312031389100915720888000A12D3
:100BB0008A11F9250A128A110800F2008312031320
:100BC00089100911720888000A128A11F9250A127F
:100BD0008A1108000130F0020030031CF103F10219
:100BE000700A031DF72D710A031DF72DF82DEA2D4C
:100BF0000800831203130914E830F0000330F100F9
:100C00000A128A11EA250A128A11831203130910A3
:100C1000E830F0000330F1000A128A11EA250A12C6
:100C20008A11080083120313850101308316031310
:100C3000850001308316031788008901831203138E
:100C40008801831603138801831203138901831615
:100C5000031389010A128A11C4250A128A110A1281
:100C60008A11B8250A128A1180300A128A11DD25EC
:100C70000A128A1183300A128A1104270A128A1171
:100C8000342E0A128A110028F601F31F482E492E2D
:100C9000502EF209F309F20A0319F30AF601F60AD3
:100CA000F11F532E542E592EF009F109F00A0319A1
:100CB000F10A7008710403195E2E5F2E8E2EF50165
:100CC000F50A6D2E01300310F00DF10DFF3E031DEE
:100CD000632E0130F4007408F507F11F702E712E99
:100CE000622E71087302031D772E70087202031CB6
:100CF0007A2E7B2E812E7008F2027108031CF303FA
:100D0000F30201300310F10CF00CFF3E031D822EA4
:100D10000130F502031D8D2E8E2E712E76080319DB
:100D2000922E932E982EF209F309F20A0319F30A70
:100D30007308F1007208F0000800F601F11FA12EFF
:100D4000A22EA92EF009F109F00A0319F10AF60101
:100D5000F60AF31FAC2EAD2EB62EF209F309F20AF5
:100D60000319F30A0130F4007408F606F701F801DC
:100D7000700871040319BD2EBE2EF52EF501F50A7B
:100D8000CC2E01300310F00DF10DFF3E031DC22EDD
:100D90000130F4007408F507F11FCF2ED02EC12EBC
:100DA00001300310F70DF80DFF3E031DD12E710821
:100DB0007302031DDD2E70087202031CE02EE12E6B
:100DC000E82E7008F2027108031CF303F302771493
:100DD00001300310F10CF00CFF3E031DE92E013031
:100DE000F502031DF42EF52ED02E76080319F92EE8
:100DF000FA2EFF2EF709F809F70A0319F80A7808FE
:100E0000F1007708F0000800FB007B088312031351
:100E10009F008030831603139F00831203139F14D7
:100E20009F18132F142F102F831603131E08F90079
:100E3000FA017908FC007A08FD00831203131E08EA
:100E4000F900FA017908B2007A08B30032083304D5
:100E5000031D2B2F2C2F302F7D08B1007C08B000F4
:100E600032033304031D352F362F3E2F7C08003EFE
:100E7000B0007D080318013E013EB1000230320689
:100E80003304031D442F452F4D2F7C08003EB00036
:100E90007D080318013E023EB100033032063304E0
:100EA000031D532F542F5C2F7C08003EB0007D089B
:100EB0000318013E033EB100E830F0000330F100BA
:100EC0003108F3003008F2000A128A119D260A1236
:100ED0008A11710883120313AF007008AE00E83066
:100EE000F0000330F1003108F3003008F2000A127C
:100EF0008A1144260A128A11710883120313AD0065
:100F00007008AC006430F0000030F1002D08F300F0
:100F10002C08F2000A128A119D260A128A11710801
:100F200083120313AB007008AA006430F000003095
:100F3000F1002D08F3002C08F2000A128A11442651
:100F40000A128A11710883120313A9007008A800FD
:100F50000A30F0000030F1002908F3002808F20000
:100F60000A128A119D260A128A117108831203132C
:100F7000A7007008A6000A30F0000030F100290830
:100F8000F3002808F2000A128A1144260A128A1174
:100F9000710883120313A5007008A4002E08303EC8
:100FA0000A128A11D0250A128A11831203132A0801
:100FB000303E0A128A11D0250A128A1183120313B5
:100FC0002608303E0A128A11D0250A128A1183128D
:100FD00003132408303E0A128A11D0250A128A11FE
:100FE0000800FC01FD0183132030840034300A1214
:100FF0008A11B0250A128A1183010A128A11122E4F
:00000001FF
